{
  "contractName": "Fibonacci",
  "abi": [
    {
      "inputs": [
        {
          "internalType": "uint256",
          "name": "n",
          "type": "uint256"
        }
      ],
      "name": "fib",
      "outputs": [
        {
          "internalType": "uint256",
          "name": "",
          "type": "uint256"
        }
      ],
      "stateMutability": "pure",
      "type": "function",
      "constant": true
    }
  ],
  "bytecode": "0x608060405234801561001057600080fd5b5061025a806100206000396000f3fe608060405234801561001057600080fd5b506004361061002b5760003560e01c8063c6c2ea1714610030575b600080fd5b61004a600480360381019061004591906100ff565b610060565b604051610057919061013b565b60405180910390f35b60008082141561007357600090506100bf565b6000600190506000600190506000600290505b848110156100b8576000828461009c9190610185565b90508392508093505080806100b0906101db565b915050610086565b5081925050505b919050565b600080fd5b6000819050919050565b6100dc816100c9565b81146100e757600080fd5b50565b6000813590506100f9816100d3565b92915050565b600060208284031215610115576101146100c4565b5b6000610123848285016100ea565b91505092915050565b610135816100c9565b82525050565b6000602082019050610150600083018461012c565b92915050565b7f4e487b7100000000000000000000000000000000000000000000000000000000600052601160045260246000fd5b6000610190826100c9565b915061019b836100c9565b9250827fffffffffffffffffffffffffffffffffffffffffffffffffffffffffffffffff038211156101d0576101cf610156565b5b828201905092915050565b60006101e6826100c9565b91507fffffffffffffffffffffffffffffffffffffffffffffffffffffffffffffffff82141561021957610218610156565b5b60018201905091905056fea26469706673582212207cd0224773fdf1ef94e705c1f80e6912dfd02e3ebaa3626db4f0e7b8fe0a8d7764736f6c634300080b0033",
  "immutableReferences": {},
  "source": "// SPDX-License-Identifier: MIT\npragma solidity >=0.4.22 <0.9.0;\n\ncontract Fibonacci {\n  function fib(uint n) pure external returns(uint) {\n    if(n == 0) {\n      return 0;\n    }\n    uint fi_1 = 1;\n    uint fi_2 = 1;\n    for(uint i = 2; i < n; i++) {\n      uint fi = fi_1 + fi_2;\n      fi_2 = fi_1;\n      fi_1 = fi;\n    }\n    return fi_1;\n  }\n}\n",
  "sourcePath": "/var/www/html/dapp30/fibonacci/contracts/Fibonacci.sol",
  "compiler": {
    "name": "solc",
    "version": "0.8.11+commit.d7f03943.Emscripten.clang"
  },
  "schemaVersion": "3.4.4",
  "updatedAt": "2022-05-21T18:06:00.422Z",
  "networkType": "ethereum",
  "devdoc": {
    "kind": "dev",
    "methods": {},
    "version": 1
  },
  "userdoc": {
    "kind": "user",
    "methods": {},
    "version": 1
  }
}